:020000041000EA
:1000000000B5324B212058609868022188439860DF
:10001000D860186158612E4B002199600221596106
:100020000121F02299502B49196001219960352056
:1000300000F044F80222904214D00621196600F024
:1000400034F8196E01211966002018661A6600F04E
:100050002CF8196E196E196E052000F02FF8012189
:100060000842F9D1002199601B49196000215960AB
:100070001A491B48016001219960EB211966A021F2
:10008000196600F012F800219960164914480160C1
:100090000121996001BC002800D000471248134993
:1000A000086003C880F30888084703B5996A0420EC
:1000B0000142FBD001200142F8D103BD02B5186610
:1000C0001866FFF7F2FF186E186E02BD00000240BE
:1000D000000000180000070000035F00212200005C
:1000E000F4000018222000A00001001008ED00E03C
:1000F00000000000000000000000000074B24E7A12
:1001000000200420F7010010C3010010C5010010F9
:10011000C1010010C1010010C1010010C101001097
:10012000C1010010C1010010C1010010C701001081
:10013000C1010010C1010010C9010010CB01001065
:10014000CD010010CD010010CD010010CD01001037
:10015000CD010010CD010010CD010010CD01001027
:10016000CD010010CD010010CD010010CD01001017
:10017000CD010010CD010010CD010010CD01001007
:10018000CD010010CD010010CD010010CD010010F7
:10019000CD010010CD010010CD010010CD010010E7
:1001A000CD010010CD010010CD010010CD010010D7
:1001B000CD010010CD010010CD010010CD010010C7
:1001C00000BE00BE00BE00BE00BE00BE00F04BF888
:1001D000103800BEF2EB8871604F0010884F00109D
:1001E0003402001090A31AE700202149086006C8D5
:1001F00081F3088810471F48006800282FD10DA4FC
:100200000ECC002902D000F012F8F9E71A491B4A77
:10021000002000E001C19142FCD1194988471949E9
:1002200088471949884700BEFDE701C901C29A42C3
:10023000FBD37047884F0010C000002054020020FC
:100240002851001000000420000004202851001054
:1002500000100420001004200000000070470B482C
:1002600003F098F80047EFF30580C0B27047000034
:1002700008ED00E0000000D060020020E46F0220E2
:10028000391800105D03001029190010575600009E
:1002900006005250ABB36053984E00100600525007
:1002A000861C0302A84E0010060052505422A29D44
:1002B000B44E001005005250DE65F468285100105D
:1002C000F8B5C0460448054B10B5834203D0044B33
:1002D000002B00D0984710BD54020020540200208B
:1002E0000000000006480749091A8B10C90FC918F9
:1002F00010B5491003D0044B002B00D0984710BD17
:1003000054020020540200200000000010B5074CE9
:100310002378002B09D1FFF7D5FF054B002B02D026
:10032000044800E000BF0123237010BD60030020DB
:1003300000000000604B0010054B10B5002B03D0EF
:100340000449054800E000BFFFF7CCFF10BDC046E0
:100350000000000064030020604B0010F0B5DE4692
:1003600057464E464546E0B593B004F003FAE849D7
:10037000E84804F069FAE8498046E64804F064FA7F
:10038000E6490700E34804F05FFA0023F8249A46A0
:100390000D93C0268023360305005B021022640201
:1003A0000AA90EA80A930B940C9603F0D9FF4146B4
:1003B000424680244B1C08321203DB0113436402C3
:1003C00010220EA90AA80F930E94109603F0C8FFEE
:1003D000A021D34BC9028B460A200A9106210D9316
:1003E00000F07AFA0121012389460A22C9480091C6
:1003F000002104F09BFA42460021C6480AAB04F0F3
:10040000D9FA3A007B1C0D321203DB011343C54AB3
:10041000594613408022D20513430F93C24B0B2041
:100420000E9106211193109600F056FA49460123C9
:100430000B22B848009104F079FA3A000121B5483E
:100440000EAB04F0B7FA8022F82351465B02520249
:100450000A920B930D9110220AA90EA80C9603F094
:100460007FFF2A00AB1C08321203DB0113430EA9E5
:1004700010220AA80F930E94109603F071FFAB4B55
:1004800006210C200D9300F027FA06210D2000F024
:1004900023FA06210E2000F01FFA4B460C220221FF
:1004A0009C480093023304F041FA2A0002210AAB6F
:1004B000984804F07FFAA0239D4ADB051A609D4A04
:1004C0009D495A60962292029A609C4A1A619C4AFF
:1004D000116053604B4693609A4B13618D4B5A6881
:1004E0002242FCD1984A1A6180228A4B92025968B2
:1004F0001142FCD1E022FF325A618022854BD202A8
:1005000059681142FCD14022FF329A6119688F4A22
:100510000A431A60A02286230121D205DB00D150B4
:100520008B4BA0261D0000240793B600200003F08B
:1005300007FE884903F0F7FD874903F0E0FD8021BD
:10054000C90503F0D6FD9B21C90503F0ECFD03F0BE
:1005500019FE013401C5B442E8D1804BF0261C607D
:1005600000247F4D7600200003F0EAFD011C03F01B
:10057000C3FD7C4903F0C3FD011CFE20800503F090
:10058000B8FD9B21C90503F0CEFD03F0FBFD01344E
:1005900001C5B442E7D10022734B1C60734B1A6053
:1005A00000F0BEFD714B08901B6809910593002374
:1005B0000693079B1B680293694B039300230493E4
:1005C000039B00271B6800269B46012399460023B6
:1005D000002400259A4698462200434628005146AA
:1005E00003F06AFD029B09019C46000FF51B0843BE
:1005F00065444000EB17584404002A001900280005
:100600009A4603F059FDE3170E01000F220019006E
:1006100006432000984603F04FFD80220F01000F93
:100620000743F319D205934253DA01239C46504BFA
:10063000E1449945D0D14E4A059B944663440593C5
:10064000039B049A04330393F023013204925B006A
:100650009A42B5D1079B069A04330793A02301322F
:1006600006929B009A42A4D1049A3F4B1A604A46D4
:10067000404B1D60404B1C60404B1E60404B1F6058
:10068000404B1A60029A404B1A605A463F4B1A6020
:10069000059A364B1A60069A304B1A6000F040FDFE
:1006A000089B099CC01AA14103F0A6FD03F0B2FD0E
:1006B000374A384B03F037F902000B00364804F094
:1006C0004DF82A4B35481B681900029304F046F890
:1006D00026E7059B4B440593FA239B009945AFD031
:1006E000F53BFF3B99455BDB049A94469300069AE1
:1006F000634494460122DB0163441A4266D03821E8
:100700000B4A5B10D25C0A430949CA5498E7C046B9
:10071000944B001000002050CC4B0010B04B001048
:1007200040010004FFFFFF9F602D00448C01300C4E
:10073000500E0020180020507C01002011080100FC
:100740004000005009801F008F02000007070000D2
:100750003C04002000004040000020444C0E0020DB
:10076000506602200000F043380400203C0E0020B8
:10077000E9030000440E0020DC6D0220D46D02204D
:10078000480E0020D06D0220400E0020D86D0220BF
:100790008DEDB5A0F7C6B03E604B00107C4B00104D
:1007A0004B46F92B1ADD049A94469300069A63444B
:1007B00094460122DB0163441A4224D03021454A89
:1007C0005B10D25C0A434349CA5439E70721414AC6
:1007D0005B10D25C0A433F49CA5431E77C2B1ADDD7
:1007E000049A94469300069A634494460122DB01DE
:1007F00063441A4224D02021364A5B10D25C0A435B
:100800003449CA541CE70621324A5B10D25C0A43C1
:100810003049CA5414E73D2B1ADD049A94469300DC
:10082000069A634494460122DB0163441A4224D0B1
:100830000821284A5B10D25C0A432649CA54FFE6C5
:100840000421244A5B10D25C0A432249CA54F7E6C9
:100850001E2B1ADD049A94469300069A634494462C
:100860000122DB0163441A4224D01821194A5B108B
:10087000D25C0A431749CA54E2E60121154A5B10CB
:10088000D25C0A431349CA54DAE6049A0E2BC5DD3A
:1008900094469300069A634494460122DB01634424
:1008A0001A420FD028210B4A5B10D25C0A43094937
:1008B000CA54C5E60321074A5B10D25C0A430549C6
:1008C000CA54BDE60521034A5B10D25C0A430149C4
:1008D000CA54B5E6500E0020094A830094464022CF
:1008E000634410B51C68C0006240C02414408022DC
:1008F000520113431C60034B9C466044416010BD91
:1009000004C0014000400140EFF3108072B6034A7A
:100910001368002BFCD0BFF35F8F70472C0100D011
:10092000BFF35F8F0022024B1A6080F3108870477C
:100930002C0100D0F8B5EFF3108772B60E4E336875
:10094000002BFCD0BFF35F8FCB08C4180725A4464B
:10095000C45C01230D40AB4018002040234208D165
:10096000624623431370BFF35F8F306087F31088B4
:10097000F8BD100000F0DAFF2C0100D0024B18681F
:100980008007C00F7047C04600C006400021044BDE
:10099000044ABFF35F8F02C39342FAD17047C04647
:1009A000000100D0800100D0044A1078431CDBB263
:1009B000172B00D9102313707047C0468001002008
:1009C00001238340002904D0034A1360034A1360C3
:1009D0007047034A1360FBE780E200E000E100E0BB
:1009E00080E100E0024B10309B688000C0587047E7
:1009F00000ED00E070B50D00EFF3108672B60F4AFF
:100A00001368002BFCD0BFF35F8F0D4B10309B6839
:100A100084001B590B4A934203D09D4201D000F041
:100A20009DFF074B9B681D51BFF35F8FBFF35F8F27
:100A30000022024B1A6086F3108870BD240100D09A
:100A400000ED00E0CD010010F0B5DE4657464E4601
:100A50004546E0B50C0083B0EFF3108A72B65A4AEF
:100A60001368002BFCD0BFF35F8F102291468144A6
:100A70004A46564B96009B689D59554B98469D4259
:100A800005D0A54216D0534FEB1B2F2B14D94F4B3B
:100A90009B689D51BFF35F8FBFF35F8F00224A4B6E
:100AA0001A608AF3108803B03CBC90469946A2466F
:100AB000AB46F0BD1D00EAE7012383409B465A4642
:100AC000454B1B681A4000925A46444B1A60BFF3CC
:100AD0005F8FFFF7C8FB0190002803D0814501D04C
:100AE00000F03CFF01232A009A4393689C4208D1FE
:100AF00060E04B005B189B00FB189968A14211D085
:100B00001A00062151560029F3DA009B002B05D06C
:100B10005A46334B1A60304B1A60B8E75A462F4B8F
:100B20001A60B4E706215956002922DB4A00501802
:100B300080003C188046A0689860E079D871062053
:100B400020569871A0797F2824D8A488F81A6405C3
:100B5000241544440019E0240005400D24022043DC
:100B6000988052181F4B9200BF181A781970BA71EA
:100B7000CBE70199002910D1FF3191711A49918079
:100B800018490A789A71194ADB1B5B415A43120DC6
:100B90000A70BAE7BD200002E2E7154A1549D21AE9
:100BA000083A5002400D01439980134952080A4304
:100BB000DA80AAE70621515613000029B6DA019A15
:100BC000002AEAD14546DBE7240100D000ED00E031
:100BD000CD0100108401002000E100E080E100E090
:100BE00080E200E03504002000BDFFFFAAAA00005B
:100BF000BE01002000F0FFFF00F8FFFFF8B501255F
:100C000004000543FFF72FFB0300EFF3108672B6D5
:100C100021490A68002AFCD0BFF35F8F1F4A2000D9
:100C20001F49801A40414143090D1E489B008768B7
:100C300049B2FF58AF421CD00623D3568B421CD07A
:100C40001223D3568B4222D01E23D3568B4220D060
:100C50002A23D35603208B4210D0134B1A781970D5
:100C6000A271BFF35F8F00220B4B1A6086F31088CE
:100C7000F8BD82680D48D050EFE7002043001B18F4
:100C80009B00D218FF239371094B9380E5E7012065
:100C9000F4E70220F2E7C046240100D084010020DE
:100CA000AAAA000000ED00E035040020CD010010EC
:100CB00000BDFFFF054B064A1360064A13605360F0
:100CC0009360D3601361536193617047808080802B
:100CD00000E400E004E400E0024B9C46614489002B
:100CE000016070474000003483680B4810B58446AB
:100CF00061446244090112019A18591854684B68FA
:100D000001209C4201D802D00020C0B210BD126860
:100D10000B689A42F9D8F7E7FFFFFF0FF8B557467F
:100D200045464E46DE46E0B599460CAB19780DAB0C
:100D30001B78050090469A460768002912D1BE7BB1
:100D4000002E45D074003B68A419033C1B195A7847
:100D50003100BA73002A00D1FA7300229A705A70D7
:100D60001A7003E00E004C006418033C2C4B002268
:100D70009C46AB6861449C464346090161440B6054
:100D80004B464B600A9B8B600B9BCB603B681B19EF
:100D90009A705A701A707B7B9B46002B2CD03200C5
:100DA0005946B8687B6898473A68002817D05B4670
:100DB00058465B005B441419033BA070D118D35C08
:100DC000002B00D063705B460E707B73B34514D06C
:100DD00030003CBC90469946A246AB46F8BD5B4607
:100DE0005B005B44033BD3189E701119125D002A0F
:100DF00000D05A705B460B707E7342464B46287D8E
:100E000000F008FA041E06D05346002B03D131002F
:100E1000286800F045FC0E9B002BD9D01C70D7E74A
:100E2000FFFFFF0FF0B5DE464E465746454600230E
:100E3000E0B58DB00A936B4B8200D3580B90994666
:100E400000239B464B46079300F06AF9079C060077
:100E50000F006268EFF3108572B61368002BFCD0A8
:100E600022000794BFF35F8F2468637B9946002BB1
:100E700067D092685C4B90464B441B0198444346B4
:100E80001A685B6810001900801BB94100295FDDFA
:100E90000B9800F0BFF900230026984600279A46D9
:100EA000079C6368BFF35F8F5A461A6085F310880A
:100EB0005346002B08D10028C6D10DB03CBC90464B
:100EC0009946A246AB46F0BD0A9B414618024B46E6
:100ED0001843D047089009916268EFF3108572B605
:100EE0001368002BFCD00794BFF35F8F0899099A11
:100EF000002A48DB114303D0079B1B69002B5DD1FF
:100F0000079B1B68DA7B002A07D051008A181968F2
:100F10008C4649466244033A51704A46DA734B465E
:100F2000079A013BD168CA5C0132CA545B46079AF2
:100F300013615368BFF35F8F5A461A6085F31088B8
:100F400082E700230026984600279A460020A7E75C
:100F5000002901D100289BD10021200000F002FBD4
:100F600043461E685F689B68079A9A464346DB685B
:100F70009846D3684B44013B1B780A931B020343FA
:100F8000136100208CE72369002BB9D033003C00AB
:100F90005B1A94411A002300A74219D89F421BD024
:100FA000594604910121039149460291414601911C
:100FB000514607980091FFF7B1FEB7E700F0B0F88F
:100FC000089A099B06000F0092197B419942E5D9C6
:100FD00001225242D317E3E79642E1D9012252425D
:100FE000D317DDE708040020FFFFFF0F10B5124CF8
:100FF0006368002B04D00A211048FFF76DFE10BD76
:1010000023000F4A1021206800F0CAF9032000F0E5
:101010007BF8032000F070F903200A4900F0B4F8CF
:10102000FFF7C2FC084B9C46032360442375074B23
:1010300080006060DC60DEE7CC0100201C04002042
:10104000E90C0010250E00104000003408040020B8
:10105000F0B5D6464F464646C0B5EFF305833F226E
:10106000134018001038EFF3108C72B6204D2A6828
:10107000002AFCD0BFF35F8F0122110081401D4C7C
:10108000884661631C4917000E788A463100C140CA
:101090000F400A4215D019498200646A51588C42A7
:1010A00019D3174BD25843469E4353461E70BFF385
:1010B0005F8F00232B608CF31088002A06D09047A6
:1010C00004E0BFF35F8F2F608CF310881CBC904648
:1010D0009946A246F0BD0B4A9B00904643441A68CD
:1010E0001A60BFF35F8F00232B608CF31088EDE74D
:1010F000280100D0004005403604002020040020D4
:1011000084030020D03F054010B50100024A034887
:10111000FFF710FC10BDC046F04B00103404002057
:10112000034B596A0A00986A596A8A42FAD1704791
:101130000040054070B504000D00124A536A1900C2
:10114000966A536A8B42FAD13000190024184D4137
:10115000AB4211D80ED02B000A494A6A9A42FCD3FE
:1011600007D1084A02E0516A994202D1916AA1422C
:10117000F9D370BDA642EED9012301246442E517DC
:101180005B42E9E70040054070B504000D00EFF355
:10119000108672B61A4A1368002BFCD0BFF35F8F1B
:1011A000002D1BD02000FFF71DFC164981420AD0FC
:1011B0002000FFF71FFC01212000FFF701FC0123A5
:1011C000A340114A1360114BA400E550BFF35F8F99
:1011D00000220B4B1A6086F3108870BD0B4BA200E7
:1011E000D5500122A2400A4920000B7893430B708E
:1011F0000449FFF729FC00212000FFF7E1FBE5E7A8
:10120000280100D0511000103860054084030020F0
:1012100036040020F0B54F46D6464646C0B5070016
:10122000304C616A0D00A66A616AA942FAD18B420C
:1012300008D805D001201CBC90469946A246F0BDB6
:10124000B242F7D9EFF3108972B627480168002936
:10125000FCD0BFF35F8F01252449BD408C4609783F
:10126000204C0E002E438846F1B28A466146504615
:101270000870391D1E48890065630A51B9000B507A
:10128000216A0020294219D0616A0800A66A616AB1
:101290008142FAD18B4219D801D1B24216D8C24547
:1012A0001DD0104B1F201D625D6301230740BB4012
:1012B000104A1E381360634642461A70BFF35F8FB0
:1012C0000022094B1A6089F31088B4E70020BFF3AD
:1012D0005F8F0022044B1A6089F31088ABE701206E
:1012E000ECE7C04600400540280100D0360400204D
:1012F0002004002080E200E010B5EFF3108472B605
:101300000A490B68002BFCD0BFF35F8F0123834099
:10131000074A0848136202789A430270BFF35F8F4E
:1013200000230B6084F3108810BDC046280100D054
:10133000004005403604002070B505000E00140082
:10134000002924D0002A24D080686B689847296837
:1013500000280ED063001B197200033B9219CB18B2
:10136000033A9E7088188A5C002A14D104703000F9
:101370000EE073009B196200033B1219CB18033A6D
:101380009C7088188A5C002A00D05A700670200071
:1013900070BD0800FCE75A7004703000F8E7C046E2
:1013A00030B583600023CCB24373013304734260D1
:1013B0008373C4730D000068012C06D9421C0133ED
:1013C000DBB2137003329C42F9D1FF2129404B005C
:1013D0005918002340180338437030BDF8B5CE4685
:1013E000474606000C0080B5002907D04D00036871
:1013F0006D18033D5A195778002F04D120000CBCFA
:1014000090469946F8BD7900C91903398846434486
:101410005978894600215970517073683A0021004B
:10142000806898473368002814D042469A18947010
:1014300059195B5D002B00D053700F70270049468F
:101440003000FFF7CBFF390002003000FFF774FFD8
:101450000400D3E7424641465D19AF709A185B5CC1
:10146000002B00D06B701470E9E7C046F0B557460A
:101470004546DE464E46E0B50D006B0001685B193F
:10148000DF1E0400C85D83B00192CA1900284CD049
:1014900043001B18033BCB185E78B446002E16D1D0
:1014A000019E002E3ED0E67B002E04D073009B19D7
:1014B000CB18033B5D70E57300282FD100235370D8
:1014C00003B03CBC90469946A246AB46F0BD7200C4
:1014D0006244033A89184A78904600224A7091463D
:1014E0005A70010032002000FFF726FF4346824673
:1014F000002B07D05B0021684344033BCB185A788C
:10150000002A16D1424651462000FFF715FF2168F8
:10151000019BCA19002BC6D10028CFD043001B184D
:10152000033BCB1800219970C8E7019B002BBAD16F
:10153000C4E75000801803380918487883464846A5
:101540004870587041462000FFF7F6FE5946804625
:101550002000FFF743FF414602002000FFF7ECFEAA
:101560008046CFE7F0B54E464546DE465746E0B5E5
:10157000467B040075000068AD19033D83B00191FE
:10158000415D421900294ED04B005B18033BC31844
:101590005F78BC46002F18D1019D002D40D0E57B1F
:1015A000002D04D06B005B19C318033B5E70E6731B
:1015B000002931D1002330005370617303B03CBC6B
:1015C00090469946A246AB46F0BD7A006244033A83
:1015D0008018427893460022427091465A7020004B
:1015E0003A00FFF7A9FE5B468046002B07D05B0060
:1015F00021685B44033BCB185A78002A17D15A461E
:1016000041462000FFF798FE019B01002068421927
:10161000002BC4D10029CDD04B005B18033BC3186D
:1016200000209870C6E7019B002BB8D1C2E750009C
:101630008018033809184878824648464870587020
:1016400059462000FFF778FE53468346002B07D00B
:101650005B0021685344033BCB185A78002A06D11B
:10166000594652462000FFF767FE8346C7E7500001
:1016700080180338091848464F784870587051460A
:101680002000FFF759FE390081462000FFF7A6FE33
:10169000494602002000FFF74FFE8246E0E7C046C1
:1016A00070B5040000292CD0437B8B422ED00568F6
:1016B00048004018033828188278002A21D05300A7
:1016C0009B18033BEA5CEE188A4202D11BE0002A19
:1016D00008D053009B18033BEB185A788A42F6D186
:1016E00042785A7000230122837043702000FFF774
:1016F000BDFE617B02002000FFF71EFE607301202B
:1017000000E0002070BD43783370EBE70122190040
:10171000FFF7ACFE60730120F4E7C04610B504008B
:10172000FFF742F901002000FFF7D6FAFF232371EB
:10173000BFF35F8F10BDC04610B50400FFF734F94A
:1017400001002000FFF7C8FAFF23A380BFF35F8FDB
:1017500010BDC046F8B5040006200D0000F062FA86
:10176000002845D02B4B2C49E3185A425341802284
:10177000D20394465B421340284A63441360284ACC
:10178000136018008A689043FBD1224B8021E31834
:101790005A425341234A5B0049000620995200F007
:1017A00041FA2900C00001F04BFEC30921D14027B6
:1017B0000122260080256262A36200232C36AD013F
:1017C00035432B60062000F02DFA3900800001F02F
:1017D00037FE6023E26A53406E221A4080235B0189
:1017E00033431A60104B236310232B600D3BA3641B
:1017F000F8BD0E4A934203D900230D4F0D4AD8E796
:101800007F221040013040089F011A003F1803005A
:10181000CFE7C0460080FCBF00C0004000E00040B1
:1018200000F00040E06D022001030000FEFF000018
:10183000C0FF3F00FFFF00002C4B2D4A70B51A601F
:101840002C4A2D4B2D491A6010008B689843FBD110
:101850002B4C2C4B9C4209D2013B1D1BAD08013582
:10186000AD002D1908CC9847AC42FBD100F07CF8B4
:10187000254A214B1A60214A9368DB018033FBD152
:101880004022224B224C234D9A675A671A67DA6628
:10189000AC4208D223682000002B21D00834FFF787
:1018A0004BFFAC42F6D31C4C1C4DA168C022280053
:1018B00002F056FDA560FFF769F8FFF7FBF9FFF7A7
:1018C00095FB174C174B9C4209D2013B1D1BAD08E1
:1018D0000135AD002D1908CC9847A542FBD170BD4C
:1018E0000834FFF71BFFAC42D4D3DCE700E0004034
:1018F000BFCDFBFEFE7F3C0000F0004000C000407A
:101900003C0200204C020020FFFFFF0100F00140DC
:10191000340200203C02002000ED00E00000002026
:101920004C0200205402002000BEFDE70FB400B5B9
:10193000084883B002F070FE049B002B07D005A975
:101940001800019101F006FD034802F065FE00BE9B
:10195000FDE7C046144C0010244C001010B501489F
:10196000FFF7E4FF284C001030B50C2083B000F0E6
:10197000B3F9FFF703F800280ED0944B944A1A608D
:101980005A609A60DA601A615A619A61DA611A6281
:10199000904A5A6203B030BD8F4CA06700F0A4F9A2
:1019A00001228E4B1A60636C012BFCD103228C4BFD
:1019B0001A60894A936B012BFCD101330121894ABA
:1019C00089480093043300F033F90523874A0093D4
:1019D0000121874800F02CF9864B5A68FF2A02D86B
:1019E000802252005A608022784C7D4B216912017E
:1019F000804D1A60002905D0606901F021FD013099
:101A00000138FDD1E0217B4B02201A681140802271
:101A100052012A43116019684840032101401160B6
:101A200004219A681142FCD08022802192012A432D
:101A300009011160802252005A606F4B23616F4B85
:101A40005968FF2900D85A6003226C48634B012172
:101A50001A60020093681942FCD0E02513681D400B
:101A600080235B0103431D6012684A40032111403B
:101A700019600221614A93681942FCD080238021B9
:101A80009B0103430901196080215D4B49005160AE
:101A900063615C4B5A68FF2A00D8596080225A4B18
:101AA000E1691201574D1A60002905D0606901F003
:101AB000C7FC01300138FDD1E02252490B681A40C1
:101AC00080235B012B431A60802380229B012B43E0
:101AD00012011A6080223E4B52004A60E3614B4B78
:101AE0005968FF2900D85A608022494B216A1201A7
:101AF000464D1A60002905D0606901F0A1FC013053
:101B00000138FDD1E02241490B681A4080235B0176
:101B10002B431A60802380229B012B4312011A6001
:101B2000802380225B004B60294BD2022362394B19
:101B30005968914200D25A608022374B616A120183
:101B4000344D1A60002905D0606901F079FC01303C
:101B50000138FDD1E0222F490B681A4080235B0138
:101B60002B431A60802380229B012B4312011A60B1
:101B70008023DB024B60174B6362284B5A68FF2AB5
:101B800002D8802252005A608022254BA16912019E
:101B9000224D1A60002905D0606901F051FC013026
:101BA0000138FDD1E0221D490B681A4080235B01FA
:101BB0002B431A60802380229B012B4312011A6061
:101BC00080235B004B600E4BA361E3E6940300208F
:101BD000006CDC021BB70000008000403CB00040FD
:101BE00030B00040002F685900800240008C8647CA
:101BF00000C0024030800040001BB7003C80004025
:101C0000405973075480004054B000406080004049
:101C100060B000406C8000406CB0004048800040E4
:101C200048B00040014B8000C0587047940300202A
:101C3000F8B504000C2017001D000E0001F000FC98
:101C40004101091A8B01591AC90009188901380084
:101C500001F0F6FB069A2B04120313432268002AB4
:101C600021DB194AA21851424A41802149018C4680
:101C700052420A40154962440A6015490A601549F2
:101C800017008D68AF43FBD1C021221D890111438C
:101C900021222660A0600A602268002AFCDAE36044
:101CA00008230B60F8BD3F2221680A40B242D8D118
:101CB000A2681205120D8242D3D1EE21E268C90258
:101CC0000A409A42CDD1EDE70040FDBF00E0004060
:101CD00000F0004000C000408023024A9B00034304
:101CE000D362704700800540AA23064A1B01136097
:101CF0002F230549D360054B19605368002BFCDA8C
:101D00007047C0460040024000B0FA000060024048
:101D10007047C046F8B557464E46DE464546E0B5E4
:101D20001F000A9B05009B460D9B0E0091469246A4
:101D30009B0718D10B9B0C9A934214D213000B9A59
:101D4000B8469B1A4B444C460F0006001D0022006B
:101D50004346013439002020B047AC42F7D1AA46AF
:101D600035003E0047460B9B002B38D09A441C00A0
:101D7000D04653461A1B5B46013C185D31003B00C0
:101D8000A847002CF5D10D9B9B0721D543464A4619
:101D90009C1A0C9BA3421BD93A009A464F46914687
:101DA000E2194B46310020200134A8475445F7D3AF
:101DB00043460C99DB1B0133B9460022994203D3F9
:101DC00043464A1E4A44D21A434690460133984439
:101DD00040463CBC90469946A246AB46F8BDD0462C
:101DE000D1E7C046F0B54F464646D646C0B584B0AA
:101DF00098460EAB1B78129F994694460D9C109BFB
:101E0000119EBA0725D4002E69D19C4200D3C2E0AE
:101E100001223A4092461F2C00D9BBE00C9A551E75
:101E2000302201E0202C03D001342A55A342F9D8F6
:101E30005246002A0DD0B4420BD21F2C62D80C9A05
:101E4000551E302201E0202C5CD001342A55B442CA
:101E5000F9D1FA0635D57A055DD4002C57D10F9B00
:101E6000102B00D17CE00F9B022B00D18DE03023A2
:101E70000C9A012413704B46002B27D02D230C9A6B
:101E8000135501340C9B6246009303974346029618
:101E90000194FFF73FFF04B01CBC90469946A24650
:101EA000F0BDBB0663D4202CECD00C9B1A19013476
:101EB00078231370202CE5D030220C9B1B191A704C
:101EC0000134202CDED04B46002BD7D17B0735D4F4
:101ED0003B07D7D520230C9A13550134D2E70122B2
:101EE00015003D40AA463A4220D04A46002A2AD14F
:101EF0000C323A4227D19C429DD21F2C00D88DE74C
:101F0000202E19D92024FA06BCD57A0503D4A34281
:101F10001BD0A64219D00F9B102BC2D0022BC9D1C7
:101F2000202CAFD00C9B1B19013440E09C4200D305
:101F30008FE71F2C00D871E720248AE72B230C9A07
:101F4000135501349EE7013ED5E7631E012C00D1F5
:101F500085E70F9A102A20D0022A25D01C00ABE773
:101F6000BB060DD478230C9A01241370A4E7202C0F
:101F700000D187E758220C9B1B191A70013499E78E
:101F800058230C9A0124137096E70C9A60330124AD
:101F9000137091E7202400265BE7023CBA06E9D4DF
:101FA0000C9A12191C0083E70C9A92465344622241
:101FB0001A707FE710B5002800D110BD02F0DAFAE0
:101FC000FBE7C0460B0010B5002802D049681B682B
:101FD000984710BDF0B5DE46574645464E46E0B53B
:101FE0009BB09B46249B0A909846259B0B910C9294
:101FF0004046424619009A4601F0F3FC002800D002
:10200000E8E00122404651467F4B524201F0E4FC99
:10201000002800D0DEE00122404651467B4B524270
:1020200001F0C4FC002800D0D4E000220023404688
:10203000514601F0BBFC002800D0CAE15346C1461E
:1020400009938023289ADB001A400E92289A1A429C
:1020500001D1062326934C46099B234300D0D9E0A7
:10206000289B002600271B0500D4AEE100230D931A
:10207000269B19000D9B994200DCB0E1C81A431E53
:1020800026938023289ADB001A43002300252892F8
:102090000D93279B0024AB4200D95C1B0223289A96
:1020A0001A400E92289A134203D06B426B415B4256
:1020B0001C400D9B002B07D04846099932003B007D
:1020C00001F013FC8146099100220023404651464D
:1020D00001F06CFC002805D0802000068446099998
:1020E00061440991289A4A4B0A9E13404A46049338
:1020F000269B0B990293099B039400920193300055
:102100005B460C9A884600F0A1F90400002D72D0BD
:10211000289B220098061F23C017984341465B4620
:102120006530B0470D9B671CDA179C18DB0F98468B
:102130006B1E99460025544001E0202D13D00AAAB9
:1021400094461F23200063440A2101355E1901F0E3
:1021500077F93031317020000A2101F071F9260041
:102160000400092EE9D8052306934B460593002366
:1021700004930A33039343463A000A9E0B9F02934B
:1021800012AB009339005B4630000195FFF72AFE41
:102190000E9B0400002B2ED00C9B279AC51AAA4236
:1021A00029D93C00814698461700434621005A1918
:1021B00020205B460135B047AF42F6D84C460C991B
:1021C0002798631A01330022984200D30AE10134B0
:1021D000141910E0289B42460493279B0B99039304
:1021E000269B0A9802935346009201935B460C9AF1
:1021F00000F02CF9040020001BB03CBC904699462E
:10220000A246AB46F0BDC046FFFFEF7FFFFFEFFFEA
:10221000FFF7FFFF764B099D9C466800400D604428
:1022200001F0F2FB734A744B01F07DFB734A744B6F
:1022300001F052FB2B03734A1B0B1A4306000F00DD
:10224000714B110048460022099501F03CFB6F4A92
:102250006F4B01F068FB02000B003000390001F009
:102260003BFB01F0E9FB0D9001F0CEFB694A6A4BA4
:1022700004000D0001F057FB0022684B01F02CFB1D
:1022800001F0DAFB664A0600664B2000290001F0E7
:102290004AFB040030000D000F9601F0B5FB624AC6
:1022A000624B01F040FB02000B002000290001F00E
:1022B0000AFB02000B0006000F0001F034FB3200A5
:1022C00004000D003B003000390001F005FB002246
:1022D00010901191564B2000290001F006FB0022BE
:1022E000544B01F0F9FA02000B002000290001F024
:1022F000FCFA0022504B01F0EFFA02000B00200024
:10230000290001F0F2FA0D00802132003B000400A8
:10231000C905002001F0D7FA02000B0020002900B7
:1023200001F0DAFA02000B001098119901F0DDFAC1
:102330000022344B01F0D0FA404A0F9B944663448C
:1023400000221B0501F0EFFA06000F0002000B004F
:102350004846099901F02AFB00280AD00D9B30005D
:10236000013B39000D930022324B01F0BEFA06000A
:102370000F00C6250D99330063318D42AD41289978
:102380006D420435090500D483E63B4300D16FE676
:10239000099C484621002A4A2A4B01F015FB0028D7
:1023A00008D0002248462100274B01F0FFFA002800
:1023B00000D05DE6269B002B00D16AE60E9B5A1EDC
:1023C0009341269AD31A269363E6002304250D939E
:1023D0005FE680231B065344C146099331E6002380
:1023E00026934EE60A008446013A6244121BEEE64A
:1023F00001FCFFFFFB799F501344D33FB3C8608BB0
:10240000288AC63F0000F03F0000F83F61436F6339
:10241000A787D23F71A379094F930A400000E03F9C
:102420001655B5BBB16B0240EF39FAFE422EE63FBE
:1024300000002C400000244000001840FF03000072
:102440002D431CEBE2361A3F80842E41F0B54E46F8
:10245000DE4657464546E0B597B09946209E219FF7
:10246000229B8346984607910C923B003200300035
:10247000390001F0B6FA002800D0C1E10122300095
:102480003900CA4B524201F091FA002800D0E0E036
:10249000012230003900C64B524201F09DFA00285B
:1024A00000D0B6E0002230003900C24B01F094FAAF
:1024B000002800D098E0002230003900BE4B01F027
:1024C00075FA002800D08FE0002200233000390088
:1024D00001F06CFA002800D0B0E000230D93249B9B
:1024E0005B0501D40623984608AB9C4617220024BE
:1024F00030234146624404E0013413550139202C55
:1025000001D00929F8D888463000390001F094FA42
:102510004346DA00A94B05009B181A685B680892CD
:10252000099301F071FA02000B003000390001F04C
:10253000CAF9089A099B01F0F6F90A900B9101F08B
:102540009FFA824601F05CFA02000B000A980B9990
:1025500001F0B9F900229A4B0A900B9101F03CFA74
:10256000002800D1C0E001239C46E244504601F01F
:1025700047FA02000B000898099901F01DFA00289B
:1025800002D000239A4601354346002B69D008ABA0
:1025900017269C4608956644554614E001235B4285
:1025A00043440A2128009A4600F04AFF01343031A2
:1025B0003719397028000A2100F042FF092D00D890
:1025C000D5E0D0460500202CE8D10323249A1340FF
:1025D000012B00D100E10EAB9846249B019403939C
:1025E000239B029343461EE0249B58460493239B5F
:1025F00000960197039343460C9A029307994B4622
:10260000FFF7E8FC17B03CBC90469946A246AB46A3
:10261000F0BD249B5B070ED403226A4B24990192E0
:10262000039123990291009358464B460C9A0799BF
:10263000FFF770FBE6E70422634BEFE73B00320055
:102640000020002101F03FF9012306000F000D9347
:1026500045E7249B0393239B0293042301935B4B45
:10266000E1E7280001F0D0F902000B00300039004A
:1026700001F029F9524B002206000F0001F096F9F3
:102680000EAB984600280AD10022300039004C4B8E
:1026900001F0A2F9002802D1EB0700D50135202C6A
:1026A00032D008AA94461723280063440A21013433
:1026B0001E1900F09DFE3031280031700A2100F013
:1026C00097FE051EEBD10323249A1340012B00D162
:1026D00091E01F2C00D980E70D9B002B3BD02D23D0
:1026E00042461355013478E700220A980B99344B7F
:1026F00001F05CF9002800D046E75346002B67D173
:1027000001239C46E2443FE70323249A1340012B14
:1027100000D062E7239B002B00D15EE70D9B002BCE
:1027200003D1249A0C33134202D0239B013B239301
:10273000239B9C42CDD208AB9C4617223023624497
:102740001F2C06D82399013413558C42C1D0202C5C
:10275000F8D1202441E7249B5B0721D4249B1B074D
:1027600000D43AE7202342461355013435E7574653
:10277000089D202C37D0220030214046002F08D061
:102780000132B154202A43D0D3431B191B18002B0C
:10279000F6D10EAB98462E234146541C8B547EE74F
:1027A0002B2342461355013417E7C046FFFFEFFFC6
:1027B000FFFFEF7F65CDCD4165CDCDC1304E00101F
:1027C0000000E03F344C0010384C0010444C001026
:1027D000DB0700D4D8E693E7239B002B00D1FAE671
:1027E0000EAB98469AE70323249A1340012B00D09E
:1027F000F1E60EAB9846239B002B00D169E78DE7ED
:10280000249B0393239B029303230193064B0AE724
:102810000323249A20241340012B00D0DBE6239BC2
:102820002024002BDCD1D6E6404C0010F0B5DE466B
:102830004E4657464546E0B59FB01C00289B934640
:102840000993CF4ACF4B894608901A60002900D1DE
:1028500016E2002320789A46002800D118E22600CC
:102860001D004C460AE02A006F1C5B46089D2100B3
:10287000A8473D000136307800287AD02528F2D1CB
:1028800010239A46083B9946043B9846023B002198
:102890009C46721C107816000300203BDBB2102B04
:1028A00003D8B94F9B00FB589F460300303B092BD0
:1028B0003CD900230A932A2800D171E000239846CE
:1028C0002E2847D00300683BDBB2122B1FD8AF4A3B
:1028D0009B00D3589F46012301321943DAE7634630
:1028E00001321943D6E7434601321943D2E7534632
:1028F00001321943CEE74B4601321943CAE77078DB
:102900006C2800D1BFE280235B001943013603002D
:10291000253BDBB2532BA6D89D4A9B00D3589F463C
:1029200080235B00707819430136F0E7002703002D
:10293000B800C01901364000C018337830381A008A
:10294000303A0700092AF3D90A9018000023984664
:102950002E28B7D180237078DB0019430300303B69
:10296000721C092B00D895E12A2800D1A6E1160097
:10297000A8E7A146AA462C00D34503D801235B4211
:102980005B449A465B46524649460020089DA8474C
:1029900020001FB03CBC90469946A246AB46F0BD15
:1029A000099B40CB0A96002E03DB50780993561CF6
:1029B00084E72838014370420A9009935078561CE6
:1029C0007CE7782800D1D4E1582800D168E26F284C
:1029D00000D152E3622800D1D8E110230A009A43C3
:1029E0000B92692801D000F0A2FC0A230C934B053E
:1029F00000D4D5E101230B9A9A430B92692800D1A8
:102A0000CEE1642800D1CBE10B9A802311009B001A
:102A100019408A461A4200D032E3802311005B003D
:102A2000194089461A4201D000F002FC13005B06EF
:102A300000D510E30B9B1B0601D400F06EFC099B34
:102A400004CB1204120C924609935346002B00D07B
:102A500064E30B9A1033110099430B91520500D493
:102A60005CE3002399460B9B06930A9B0593434620
:102A700004930C9B03930023DEE27078682800D156
:102A800007E280230136194341E780239B007078D9
:102A9000194301363BE7462800D174E10722099B20
:102AA0000491073393430A9A190003924246029213
:102AB0000CC908980092019309912A005B462100F5
:102AC000FFF7C4FC01360500D5E6099B1A0008CAC9
:102AD0009146002B00D105E1212211438A460EA820
:102AE00084461F216144099500220F27A4460D004A
:102AF00002E0202A0CD00B003C001C4020003730A4
:102B0000092C00D807380132A85419090F2BF0D826
:102B10006446099DF0E08B0700D4D1E1099B2A00AF
:102B200099466B1C98464B4601CB21009946089F5D
:102B30005B46C0B2B8470A9B9C466544012B00D84F
:102B400090E2B2465E464746A846089D3A003300EA
:102B5000013721002020A8474745F7D1B3464B460F
:102B600056463D000993013685E62A006F1C5B46F8
:102B7000089D21002520A84701363D007BE6C04680
:102B80002D280010040400204C4C0010904C001024
:102B9000DC4C0010099B04CB994643460992002B5C
:102BA00000D097E013789C46002B00D1B3E30223BA
:102BB0005B425A1C099B924618000A9F0B92504494
:102BC00002E0834200D169E15A780133002AF8D14A
:102BD000099A0A979B1A0B9380230A00DB001A407C
:102BE0000C92194204D00B9B434501D943460B93E9
:102BF00002231A000A400D920B4200D184E1604684
:102C0000002823D00C9B002B00D124E1A844C2460D
:102C1000099B57465B1B9846089BB2462A00260034
:102C20005C469B4609E023003100551CD8474346CB
:102C3000585D002800D13FE12A009742F3D1A34616
:102C40003D00340056460D9B002B69D00B9B0A9922
:102C5000A846994264D98C466544ED1A089B4746BC
:102C60009A46B04626005C463A0023000137310000
:102C70002020D047AF42F7D1A346340046464FE06C
:102C8000D24B2078089300239A46002800D0E6E52E
:102C9000002471E6434606000A9F9800C0180132DE
:102CA000400080191678030030003038303B092886
:102CB000F3D93000984616000A9703E6099B0236BE
:102CC00004CB9046D2434046D21710408046099329
:102CD0003078F7E513789C46002B00D11AE3434681
:102CE000013B66E7102208009043113210438246F0
:102CF0000022490500D4F2E65346069308230593C3
:102D000043460493102303930023029316AB0192CE
:102D100000932A005B4621000898FFF763F805003E
:102D20004B4601360993A6E5202302009A43472A21
:102D300004D180231B01194302239843452801D164
:102D4000202319430722099B0491073393430A9ACE
:102D500019000392424602920CC90898009201930E
:102D600009912A005B462100FFF734F9013605007E
:102D700081E510230C930C230A009A430B924B0518
:102D800000D43BE636E62023194387E602230C9362
:102D90000B910B996428EED10B9B5B0500D529E6BE
:102DA0000B9A802311009B0019408A461A4200D0DA
:102DB000CEE0802311005B00194089461A4200D002
:102DC000DBE113005B0600D51DE10B9B09991B0697
:102DD00000D499E208C91BB2D8171A18424092B21F
:102DE00009919246DA0F1292002B09D1802310220A
:102DF0000B99DB000B4091430B91002B00D012E1AB
:102E00000B9A6123920600D541230EA91F228C46FE
:102E1000DBB262440A3B57461395A2464D460C9CD2
:102E2000B1460D9316000AE03033DBB2013573551D
:102E3000A74200D21CE1202D00D119E1070021009A
:102E4000380000F0FDFACBB20929EDD90D9A94466D
:102E50006344DBB2EAE7099B5F465B1B98460A9B2B
:102E6000B3469A462600089C2A003B003100A04742
:102E700043460135585D0028F6D1534634000A9385
:102E80005E46BB46DFE6C0239B00B078194302369E
:102E90003DE5C023B0781943023638E50A979BE632
:102EA0000C230A009A4314331A4310230B920C93F9
:102EB0004B0500D4A8E59DE5A34634005646C2E67E
:102EC0000A9A012A00D82EE26B1E9F18089BB04672
:102ED000994626005C462A00230001353100202057
:102EE000C847BD42F7D1A34634004646099B3A0085
:102EF00001CB210098467D1C5B46089FC0B2B847B5
:102F0000434601360993B6E40B9A0A98531C904243
:102F100000D80AE243199B1A1F00089BB2462600FC
:102F20005C469B462A002300013531002020D8470B
:102F3000BD42F7D10A9BA34601330B93099B340092
:102F40001B7856469C466046002800D05AE6E7E6C5
:102F50000722099B07339343013294469C446246FF
:102F60005F6809921A68FB171093119310981199D2
:102F7000030053400E930B007B400F9394460E9A30
:102F80000F9B121A8B410E920F93FB0F6246129306
:102F900000233A439A463DD00B9A6123920600D50E
:102FA00041230022DBB20EA90A3B8C4691460D93C9
:102FB00043461F326244139515964D460E9E0F9F51
:102FC000A14690460C9C14930FE0C046111D0010C2
:102FD0003032D2B2434601355A55BA4500D17CE170
:102FE000202D00D17CE106000F00220000233000DC
:102FF000390000F067FAD2B2092AE9D90D9B9C4644
:103000006244D2B2E6E7FF23099904C913401A00CB
:103010000991E6E60B9A1033110099430B91520582
:10302000BAD5002399460B9B06930A9B059343460A
:1030300004930C9B0393129B02934B46019316AB94
:103040002A00009321005B460898FEF7CBFE01366C
:103050000500FFF710FCFF22099B02CB11408A46B6
:103060000993F2E44B46454609930136FFF703FC0A
:103070004E465446A946139DD5E708230C9387E690
:103080000722099B07339343013294469C446246CE
:1030900009921A685B6810009A461300524613435F
:1030A00007D10B9A1033110099430B91520500D5AB
:1030B000D7E40B9A6123920600D541230022DBB2AC
:1030C0000EA90A3B8C4691460D9343461F3262443B
:1030D00057461295A2464D460400B14690460C9EB6
:1030E00013930DE03032D2B2434601355A550023D6
:1030F000BB4200D1FDE0202D00D1FDE004000F0017
:10310000320000232000390000F0DCF9D2B2092A95
:10311000E8D90D9B9C466244D2B2E5E70B9A612345
:10312000920600D54123DBB20EA90A3B1F228C4632
:103130000D93230062445446129517004D469A465B
:10314000B1460C9E08E03033DBB201357B55B4420A
:103150000ED3202D0CD004003100200000F070F9B7
:10316000CBB20929EFD90D9A94466344DBB2ECE760
:103170004E465446A946129D75E4099B1A0008CA9A
:10318000D91713925A184A409146DA0F1292002B1F
:1031900008D1802310220B99DB000B4091430B9147
:1031A000002B2BD10B9A6123920600D541230EAA46
:1031B0001F279446DBB20A3B0D9567445546099399
:1031C000A2464C46B1460C9E08E03033DBB20135D6
:1031D0007B55B4420ED3202D0CD0040031002000CA
:1031E00000F02EF9CBB20929EFD9099A944663442D
:1031F000DBB2ECE74E465446AA460D9D0B9B2A00D7
:1032000006930A9B21000593434604930C9B089860
:103210000393129B013602935346019316AB00931E
:103220005B46FEF7DFFD139B05000993FFF723FBC9
:10323000099B04CB91461293002A08D180231022C7
:103240000B99DB000B4091430B91002B2BD10B9A78
:103250006123920600D541230EAA1F279446DBB2B4
:103260000A3B0D95674455460993A2464C46B14624
:103270000C9E08E03033DBB201357B55B4420ED3EF
:10328000202D0CD004003100200000F0D9F8CBB282
:103290000929EFD9099A94466344DBB2ECE74E461C
:1032A0005446AA460D9D0B9B2A0006930A9B2100BB
:1032B0000593434604930C9B0898039300230293C1
:1032C0005346019316AB00935B46FEF78BFD129BB2
:1032D000050009930136FFF7CEFAB44200D87FE625
:1032E000149B4C460E960F97A9469846159E139D23
:1032F00099E6A64200D8FEE6139B4E469846A9469C
:103300005446129DFFF7AFFB08C9D8171A18424060
:10331000099166E500230B935EE4099B04CB92467A
:103320000993FFF792FB2F00E0E50B930BE6063BBA
:103330000C932EE500B585B0039101210290009316
:10334000034813004A4202A9FFF770FA05B000BD16
:10335000C51F001010B5094A0300146884B0002C82
:1033600008D0012200910648524203A9A04701203B
:1033700004B010BD01F050F90020F9E7040400206A
:10338000B51F001001480421014B1847000200201E
:10339000B5330010142310B50100188804331B88BE
:1033A000984710BD162310B50100188802331B88FA
:1033B000984710BDF0B5C64600B5002916D01423B5
:1033C00004000125984618278900461843462168BD
:1033D00018883B88984701C4431E984140420540E5
:1033E000A642F3D1280004BC9046F0BD0125F9E7C0
:1033F000124A936F9B0815D29066D166002905D0BA
:10340000FFE7FFE7FFE7516F106F704704B58021BA
:103410000906C2175140002800D0C84301F088FBBC
:10342000002104BDF0B5146E556E576F166FFFF78F
:10343000E3FF1466556657671667F0BD000000D0BD
:10344000114A936F9B0813D210665166002905D06C
:10345000FFE7FFE7FFE7516F106F704704B50028E3
:1034600001D00020C04301F063FB002104BDC04631
:10347000F0B5146E556E576F166FFFF7E5FF1466C3
:10348000556657671667F0BD000000D094464E4A57
:10349000926F9208624601D230E0C046F0B54A4EC3
:1034A000B56F6D08FCD3346E756E776F366F00F0B4
:1034B00025F89446444A146655665767166762466F
:1034C000F0BDC0469446404A926F9208624601D2CF
:1034D00058E0C046F0B53C4EB56F6D08FCD3346E75
:1034E000756E776F366F00F04DF89446364A146665
:1034F0005566576716676246F0BDC046002B24DB51
:1035000011D000293EDA00B5C943404200D1013153
:1035100000F038F8C943404200D10131DB43524248
:1035200000D1013300BD002AEBD1002801D10029D0
:1035300005D00020C90FC90701D1C043410800B51B
:1035400001F0EEFA0022002300BD00B500290ADBDD
:10355000DB43524200D1013300F014F8C94340422A
:1035600000D1013100BDC943404200D10131DB43EC
:10357000524200D1013300F005F8DB43524200D142
:10358000013300BD002923D1002B18D1002A0CD013
:10359000BC460D4F38667A6600210023FFE7FFE73F
:1035A000FFE77A6F386F67467047002801D00748F9
:1035B000010000B501F0B4FA0022002300BD0200B2
:1035C0000B00002000217047000000D0FFFFFFFF2C
:1035D000002B00D0BFE0130C28D1002AE7D080B424
:1035E000114F39667A66FFE7FFE730B4040C7B6F52
:1035F000396F1B0423433B667A66FFE7FFE7FFE76B
:10360000C04684B27B6F3D6F1B0423433B667A66E2
:10361000FFE7FFE7C04600232C042D0C7A6F386FBC
:1036200000196941B0BC7047000000D0F0B5944665
:103630000025140E01D112020835140F01D1120118
:103640000435940F01D192000235D40F01D15200FC
:103650000135D40B0134254F7C66254C3C660E0C9D
:1036600093B2FFE7FFE7FFE73C6F6643360C770353
:10367000BE467343DF0B5B04C01AB941130C73439E
:10368000DB18C91ACE086643360CB64493B27343AE
:103690001F0F1B01C01AB941130C73431F0B1B05ED
:1036A000C01AB941860D8F023E436643360C092D80
:1036B00024DB520A7243801A7703460A6643360CAB
:1036C00016235B1BDE40DF40BF1964466643821B46
:1036D0007046043506330100D940A840C01900D314
:1036E0000131A24206D20023F0BD0000000000D04C
:1036F000FFFFFFFF121B0130F3D3F1E709277F1B08
:10370000FE406446A2B27243801A00D20139220CF4
:103710007243130C1204821A99410B00704604354F
:1037200013370100F940A840801900D30131002B64
:1037300002D1A2420AD2F0BD013000D30131121BE6
:10374000FAD2013BF8D1A24200D2F0BD013000D341
:103750000131121BF7E7F0B51C0C00D080E00CB46F
:1037600000251C0A04D11B02160E33431202083531
:103770001C0B04D11B01160F3343120104359C0BA3
:1037800004D19B00960F334392000235DC0B02D12B
:1037900092185B4101351C00971864410134464F73
:1037A0007C66464C3C660E0CFFE7FFE7FFE7C04631
:1037B0003C6F6643360C7703BE4697B27743C01B17
:1037C00000D20139C01B00D201399FB27743C91B17
:1037D000C91B170C77437E04FF0B801BB941CE0831
:1037E0006643360C0C2D33DBB644120B1F053A43EF
:1037F0001B0B97B27743C01B00D201399FB27743AE
:10380000C91B170C77433E043F0C801BB941860D42
:103810008F023E43664329277F1BFE400C3D7746BF
:10382000AF40BF1930BCA2B2ABB272437343801A2F
:103830009941220C7243130C1204801A9941020020
:103840000B000137001BA941F9D2781E0021F0BD01
:103850000C277F1BFE4077467F0BAF40FF19E0E748
:1038600000245D1C07D0144F7D663966FFE7FFE733
:10387000FFE7FFE73C6F95B29EB265436643401B8E
:10388000B141150C1E0C6543664336042F0C3E43B4
:103890002D04401BB141994204D202000B002000CC
:1038A0000021F0BD01D19042F7D3801A9941013433
:1038B0009942F2D3F6E70000000000D0FFFFFFFFBF
:1038C00048404140484018B41B4B5B68FC4601939C
:1038D00008BD04DF8B3B001018B4174B1B68FC4677
:1038E000019308BD00DF953B00109446134A926F88
:1038F000920809D2624618B40F4BDB68FC4601936C
:1039000008BD0CDF4D3E00100C4AF0B5146E556E2C
:10391000576F166F6246FFF7EEFF084A146655664A
:1039200057671667F0BD18B4034B9B68FC460193BC
:1039300008BD08DFF13C0010E46D0220000000D05B
:10394000FFB550404240504059404B40594000E084
:10395000FFB5154F4C00640D03D0BC4204D10C03DD
:1039600014D80020090D09055C00640D03D0BC4289
:1039700004D11C030AD800221B0D1B0501264B4055
:1039800009D44B4003D58B4200D18242FFBD9942FE
:10399000FCD19042FFBD0B43DB1803431343F5D02A
:1039A000C9434918FFBD0000FF07000000B5FFF73D
:1039B000CFFF804100BDC04600B5FFF7C9FF01D968
:1039C000002000BD012000BD00B5FFF7B9FF01D9FF
:1039D000002000BD012000BD00B5FFF7B1FF804110
:1039E00000BD012040054A00121804D85A001218E0
:1039F00001D8002070470120704700207047000068
:103A00000021002805D17047C1174840401AFAD05C
:103A1000C90713B5064B1B6898470CBC441CA24051
:103A20001005120B0349091B09051943114310BD69
:103A3000180400201F04000010B54C00620D802304
:103A4000D218DB00D21A5B057E2A10DD9E3A13DA0B
:103A5000CC170903490819435242D140640001348C
:103A60001532202A05DAD0400843604310BD0020FB
:103A700010BD0846604310BDC80FC018013810BD06
:103A800018B4044B5B6AFC46019308BD24DFFD3F7C
:103A900000100000E46D0220132370B51D78012D85
:103AA00015D010DD2748FFF77DFC274C0100802250
:103AB000200000F055FC022D06D02448FFF76AFCD8
:103AC000234B186070BD204C224AA264F5E72E00FB
:103AD0001D4C204AA3085B421E401D422FD03300DC
:103AE00022602020B1006118801B0A604A608A6051
:103AF000CA600A614A618A61CA610A624A628A626C
:103B0000CA620A634A638A63CA630A644A648A644B
:103B1000CA640A654A658A65CA650A664A668A662B
:103B2000CA660A674A674008102803D18A67CA67CD
:103B3000A264C2E71E339B00E250A264BDE70023EB
:103B4000CFE7C04653440000E46D02204C33000030
:103B500018040020593B001007B5604601880A0A86
:103B60000230DF2AFAD1C9B2820804D30288408821
:103B70000004104300E00068014A5050039007BD64
:103B8000E46D02200FB403BC0CBCF0B50124E407C3
:103B9000634000E0F0B50C0DCF0F661E3605891BA3
:103BA000640503D3C943404200D30131640D03D0FF
:103BB000661CF60A07D0E41B00207F00791C8907E9
:103BC0008912803C24031D0DDF0F6E1E36059B1BE2
:103BD0006D0503D3DB43524200D301336D0D03D097
:103BE0006E1CF60A07D0ED1B00227F007B1C9B0792
:103BF0009B12803D2D032F1B661B58D4A446202EFC
:103C000046DA20371400BC401D00BD40F24033416D
:103C10002A4380185941CB0F05D0C943C043002225
:103C200064425041514162464D0D28D10D0D07D1DE
:103C300000281FD0241940414941013A0D0DF9D007
:103C4000640006D3013000D30131002C01D14008BB
:103C50004000013A0BD4941CE40A04D1120511442B
:103C6000DB071944F0BDD907204B194300E0D90701
:103C70000020F0BD0029DDD1002CDBD1F0BD0132E8
:103C8000C6074008CD0728434908002EE1D0D9E7F0
:103C90003C2E29DA203E40371400BC4000D00124DD
:103CA000F24014431A00BB401C43D317ACE7AC46A8
:103CB000202F08DA20360400B4400D00B540F8404B
:103CC00039412843A5E73C2F0CDA203F4036040059
:103CD000B44000D00124F84004430800B1400C4334
:103CE000C117EAE710001900002494E70000F07FF4
:103CF000F0B50C0D661E3605891BE60A6405640DD9
:103D000002D0651CED0A04D0002001210905803C89
:103D10002403A4461C0D671E3F05DB1BE70A640550
:103D2000640D02D0651CED0A04D0002201231B059E
:103D3000803C24037740644497B484B296B27443C1
:103D4000070C7E43150C6F4380B26843361802D3CC
:103D5000012000043F183004350C00197D418446D1
:103D600088B29AB250430C0C62431F0C7C438EB253
:103D70007E43921902D301263604A4191604170CA7
:103D80003618674101BC81B29AB25143040C6243B8
:103D90001B0C5C4380B25843121802D3012000046C
:103DA00024181004130C401863412D185E410020A4
:103DB000474106BC88B293B258430C0C6343120CC3
:103DC000544389B251435B1802D30121090464189A
:103DD00019041A0C091862416D1856410020474118
:103DE00018BCF902720D1143F0026A0D1043ED0286
:103DF0000A0D03D16D1940414941013B124E9B1BF5
:103E00007600B3420ED26D0007D301300026714117
:103E10006646354301D1400840001B05C918E40738
:103E20002144F0BD0BDA013306D1013004D1013158
:103E30004F0D01D04908F2E7E1070020F0BD01363F
:103E400031050020EBE70000FF030000F0B51C0D7A
:103E5000671E3F05DB1BE70A6405640D02D0661C84
:103E6000F60A04D0002201231B05803C2403D02540
:103E70002D060026F6432E661E096E66CE0FF61935
:103E8000B44649004F0D02D07E1CF60A03D0002034
:103E90000021403F3F033E1BB600B444013F7F0575
:103EA000C91B49082E6F013676089C02950D2543E3
:103EB0007543ED137543AD1301356D10F603761B95
:103EC0000CB4CC02450D2C43A2B2B3B25A43270C1A
:103ED0007B43350C6F43A4B26C431B1902D30124FE
:103EE00024043F191C041D0CA4187D4124196D41A4
:103EF000009A91B2ACB26143170C7C432B0C5F4328
:103F000092B25A43A41802D301221204BF18220409
:103F1000230C52187B41019C6C431B19520ED90192
:103F20000A434401A01A81B2B2B2514303145A4366
:103F3000360C734387B27743D617D21900277E41D8
:103F400036049B191704160C7F185E417316ED1882
:103F5000F301002680337541A90F06D16400690A78
:103F6000E8055B0A184309D22FE004229444803309
:103F70007541A90AA8059B0A184326D34041494127
:103F80002404009A019B0D005543641B4343E41A2B
:103F900095B286B27543170C7E43030C5F4392B211
:103FA0005A43B61802D301221204BF183204330C4C
:103FB00052197B4152429C41002C02D40022013014
:103FC00051414008CA071043490802B06246D7076A
:103FD0009210084BD218084B9A4203D21205891846
:103FE000C919F0BD0020002A01DC3900F0BD013301
:103FF0001905F5E7FD030000FE070000002200B5EB
:10400000203200F004F8080000BD000000220B156B
:104010000AD410B5944600F031F81414013400DAD3
:104020000021CB17144C2047002000217047624428
:10403000343A0CD40C2A07DA0400914090405242E2
:104040002032D440214310BDD843D94310BD203283
:1040500007D40C469440524220321141D0402043B4
:1040600010BD0800C917203203D45242203210413B
:1040700010BD1800190010BD2F4000100A0DCC0F04
:10408000531E1B05C91A520503D3C943404200D32E
:104090000131520D03D0531CDB0A07D0121B002044
:1040A0006400611C89078912803A1203014BD21AFD
:1040B00070470000FF03000051434343C9188C467A
:1040C000110C83B24B4310B4040C614392B280B222
:1040D000504362431C041B0C001910BC59411304CB
:1040E000120CC018514161447047000048404140E3
:1040F00048400E4B5B6818470C4B1B6818470C4A2E
:10410000936F9B0802D2094BDB681847F0B5146E19
:10411000556E576F166FFFF7F6FF054A1466556622
:1041200057671667F0BD014B9B681847E46E022085
:10413000000000D0491A002808D108467047000046
:10414000C10FC90700D54042002817D0F44603B478
:104150000B4B1B68984706BC81409E38404280311B
:1041600007D20B0607D04900490AC005104308438F
:1041700060470130F8E7490A8902F5E77047000017
:104180001804002041000A0E80231B067E2A0BDD46
:104190009E3A0BDAC1174002400818435242D04001
:1041A000490001314843704700207047C00FC018D4
:1041B00001387047C0420DD300B5400040080021CF
:1041C00000F012F8002801D4404200BD8020000613
:1041D00000BD0000034BDB69FC4618471CDFFD42B5
:1041E00000100000E46E0220014B5B6A18470000DB
:1041F000E46E0220054A10470029FBD0044B5B6E99
:10420000FC46184764DFB942001000003541001039
:10421000E46E0220034BDB6FFC4618477CDF15433E
:1042200000100000E46E0220132310B512481C7821
:10423000FFF7B8F80100012C0AD003DD80220F48F7
:1042400000F08EF80E48FFF7A5F80E4B186010BD71
:104250000A4C5422200000F083F80B4B6365A365E1
:10426000E36523666366A366E36623676367A36704
:10427000E3672362E361E5E753460000E46E022052
:104280004C330000180400208D42001007B5604632
:1042900001880A0A0230DF2AFAD1C9B2820804D39F
:1042A000028840880004104300E00068014A505032
:1042B000039007BDE46E0220002230B5002906D528
:1042C000CD0705434808013A10E0002230B505004B
:1042D0000D430FD0CD170C16AC4205D1C901440EC9
:1042E0002143C0010732F6E70500080052423D3283
:1042F0000149884730BD0000EF2900000021C215A8
:104300008032803201D0024A1047002070470000FE
:10431000CD2A0000C30FDB0741000A0E07D0FF2A99
:1043200008D00909054A8918194340077047190040
:10433000002070470249C918FAE700000000003861
:104340000000F07F01480421014B184710020020B3
:10435000B5330010014B1B68184700001002002005
:10436000014B5B681847000010020020030010B5E5
:1043700008001B681100984710BDC046F8B54746B5
:10438000CE4680B5437C07000D001600002B37D0C9
:1043900000240020002A1EDD4B1E98461B4B994628
:1043A000002C2BD043461B5D0D3B5A425341DBB2E0
:1043B0002A5D0A2A13D00134A642F1DC864203DDCD
:1043C000311A3B6828189847AD19013D2B780D3BF1
:1043D0005A4253413B740CBC90469946F8BD002BA1
:1043E000E9D1A04203DA211A3B68281898474846C9
:1043F00002213B68013498472000DDE73B7CD7E78A
:104400000368110028009847E5E7C046E44E001015
:10441000F0B5C6460C000968060000B5802906D034
:104420004B1C23606418267104BC9046F0BD0F4BF2
:104430001D68002D16D0231D98460D4F02E0ED6833
:10444000002D0FD02B68002BF9D03B68002B01D03A
:10445000AB42F4D1280041462268FFF78FFFED6898
:10446000002DEFD101230021DBE7C046FC03002033
:1044700000040020F0B557464E464546DE461C0077
:10448000D023E0B51B061F68354B83B006000D0036
:10449000180001A991469A4600F052FB8046002878
:1044A00008D1019B7FB29F4204D0504600F050FBE0
:1044B000012398466B1C03D1300000F0F3FA05008D
:1044C000002C2AD1274F284B1C68002C18D04B46B3
:1044D000002B24D1254B994602E0E468002C0FD034
:1044E0002368002BF9D04B461B68002B01D0A34258
:1044F000F3D120002A003100B847E468002CEFD146
:104500004346002B28D1681E8541E8B203B03CBC6D
:1045100090469946A246AB46F0BD154FD3E7134BE4
:1045200099460A239B4602E0E468002CE8D0236801
:10453000002BF9D04B461B68002B01D0A342F3D1CE
:104540002A0031002000B8475A466B4620001A71F5
:1045500001A90122B847E7E7504600F0D9FAD2E7AF
:10456000340200207D430010FC03002000040020E2
:104570006D430010F0B54746CE4680B583B06B461C
:10458000DF1CD02338701B061C68204B060001A9D5
:104590001800984600F0D4FA051E22D01C4B1C6867
:1045A000002C2AD01B4B994602E0E468002C10D066
:1045B0002368002BF9D04B461B68002B01D0A34287
:1045C000F3D1200001223900FFF7D8FEE468002C67
:1045D000EED1002D11D1300003B00CBC90469946AD
:1045E000F0BD019B64B29C420BD0404600F0B0FA93
:1045F000074B01251C68002CD4D1404600F088FAF6
:10460000E9E7034B1C68002CCCD1E4E7340200201E
:10461000FC0300200004002070B5040000F042FA02
:1046200000230100050001222000FFF723FF084BB3
:104630001C68002C06D06368002B05D09847E468FE
:10464000002CF8D1280070BDE468002CF3D1F9E704
:10465000FC0300200A4A1368002B05D10CE01A0065
:10466000DB680C32002B07D09842F8D1002902D128
:10467000C3681360C16070470029FCD01060FAE77E
:10468000FC030020F0B54746CE46D02380B51B067C
:104690001D682E4BA5B007000C00180003A9984612
:1046A00000F04EFA061E07D1039B6DB29D4203D067
:1046B000404600F04DFA01368422002103A8FFF79E
:1046C00049FE23003A00224803A9FEF733FE039B6C
:1046D0000700002B14D11F4B1C68002C06D0636808
:1046E000002B0BD09847E468002CF8D1002E27D17E
:1046F000380025B00CBC90469946F0BDE468ECE764
:10470000144B1D689946002D1ED0134C02E0ED6835
:10471000002D11D02B68002BF9D02368002B01D07D
:10472000AB42F4D1039B28001A0004A90193FFF7C0
:1047300025FEED68002DEDD14B4603951C68CCE7B6
:10474000404600F0E5F9D3E70395CFE734020020B7
:1047500011440010FC030020000400200FB400B539
:1047600083B004A901C90191FFF78CFF03B008BC15
:1047700004B0184710B500F043F810BDF0B50D1E99
:1047800015DD0E4B0D271A680D4B4519D3185942EC
:104790004B410C495B005E5E20210478A64207D0A5
:1047A00093691942FCD101301460A842F5D1F0BDE3
:1047B00093691942FCD11760F2E7C046300400202B
:1047C0000080FCBFE06D022030B50500002912DD3D
:1047D00000201024094B013D1A6893691C4208D13E
:1047E000013093691C42FCD113682B548142F4D1EF
:1047F00030BD0028FCD103204042F9E730040020FE
:10480000E12110B50B4B0C481B780C4B49021B786F
:104810000B4B1860FCF79EFF02210020FCF75CF8B0
:1048200002210120FCF758F801210648FFF712FF8A
:1048300010BDC046804F001000400340844F001060
:104840003004002020020020F0B5DE4645465746E1
:104850004E46E0B5060083B00D00FCF755F8304B2E
:104860002F79F1184B4259412E4B052498468B0065
:104870009B4643465A469B5820229C460123BB40F8
:1048800001902C57013BD21B002C32DB944243DCBD
:10489000A34062461A423FD19946002F18D06B7848
:1048A0002A781B021A43AB781B041343EA781206DA
:1048B0001A439246002351465A008D5A6A0B00D182
:1048C0002D191A1912329200013395519F42F2D8D4
:1048D00063464A4659461343424601985350FCF7F3
:1048E0001FF8200003B03CBC90469946A246AB4658
:1048F000F0BD002A10DB1900604691401400894683
:10490000014207D1C9E71800614690401400814672
:104910000842C2D0013AF6D20348FDF707F8C04674
:104920000000D0AF7C030020284F0010F0B54E46A9
:104930004546DE4657468B464900E0B50D008046A9
:104940005D44ED004544280009AC2678DC30741E37
:10495000A6418946016874428C4615491F268A463D
:1049600026405644052B0ED9A02149058A461F270B
:10497000D835514654010C430532053B04603A409A
:104980002E60052BF5D859464944C90041449B0681
:1049900052011A430B000800DC331A606246D8301B
:1049A00006601A603CBC90469946A246AB46F0BDF4
:1049B00080E00000F0B501258D400468AC434D0057
:1049C00004606C18E40004192600C836002B2AD0B5
:1049D0001F68DC3437605F6877609F68DB68B760AA
:1049E00023606B18DB001D008024D035451964015D
:1049F0002C4380252D0625602560114C0D1D8C4013
:104A0000846001242700AF403D0008318C401F2105
:104A100006680A403543056005682C430460C018E9
:104A2000D8300260F0BD80277F023760F8277F0210
:104A30007760C027DC343F03B7602360D1E7C0460E
:104A40000101010110B5114C114B22689A4210D19D
:104A5000104B62689A420CD10F4BA2689A4208D15F
:104A600000230E482360FEF795FC00210300002080
:104A70009847074B00212360064B09486360064BAB
:104A8000A360FCF757FB0023236010BD54020020F5
:104A9000DE8116F0299B72BD7ABE59D355420000C3
:104AA000400D030010B5830727D00378002B26D0D4
:104AB0000300032102E01A78002A1CD001330B42C4
:104AC000F9D119680F4A104C8A188A4322420FD133
:104AD000043319680B4A8A188A43224208D10433E6
:104AE0001968084A8A188A432242F1D000E001334B
:104AF0001A78002AFBD1181A10BD0300E1E7002044
:104B0000FAE7C046FFFEFEFE80808080F8B5C04612
:104B100001B40248844601BC604700BF5101002037
:104B200001B40248844601BC604700BF79010020FF
:104B300001B40248844601BC604700BF79010020EF
:104B400001B40248844601BC604700BF090100204F
:104B500001B40248844601BC604700BFC100002088
:104B6000546F74616C2074696D653A2025332E365C
:104B700066207365636F6E6473200A00546F7461FE
:104B80006C20697465726174696F6E733A20256474
:104B9000000000009C4B001009FF0000A08027A02F
:104BA000420000FF00FF00FF01FF01EC00C1000018
:104BB000B84B001009FF0000A08047A000E022A031
:104BC000C123A0800364036245000000D44B0010A1
:104BD0000EFF0000A08027A0C02001C0420049E0D5
:104BE000C020860000E0C020C0205FE0C0388C00FC
:104BF000486172647761726520616C61726D202515
:104C00006420616C726561647920636C61696D65B3
:104C1000640000000A2A2A2A2050414E4943202AD3
:104C20002A2A0A000A000000486172642061737336
:104C300065727400666E6900666E692B0000000084
:104C40006E616E00666E692D00000000F62800108F
:104C5000AA280010AA280010EE280010AA28001088
:104C6000AA280010AA280010AA280010AA280010BC
:104C7000AA280010AA280010E6280010AA28001070
:104C8000DE280010AA280010AA280010D62800103C
:104C90007A2A00100E2900108A2A00100E2900100E
:104CA000FE2800100E2900100E2900100E290010F9
:104CB0000E2900100E2900100E2900100E290010D8
:104CC000202900100E2900100E2900100E290010B6
:104CD0000E2900100E290010202900106A2B001048
:104CE000662800106628001066280010662800104C
:104CF000662800106628001066280010662800103C
:104D0000662800106628001066280010662800102B
:104D1000662800106628001066280010662800101B
:104D2000662800106628001066280010662800100B
:104D300066280010662800106628001066280010FB
:104D400066280010662800106628001066280010EB
:104D5000662800106628001066280010282D001014
:104D6000962A0010282D00106628001066280010D2
:104D700066280010662800106628001066280010BB
:104D800066280010662800106628001066280010AB
:104D9000662800106628001066280010662800109B
:104DA0006628001066280010C2290010662800102E
:104DB000662800106628001066280010662800107B
:104DC000662800106628001066280010662800106B
:104DD000C2290010162B0010C2290010282D001027
:104DE000962A0010282D001066280010C2290010F5
:104DF000662800106628001066280010662800103B
:104E000066280010C2290010CA2A00106628001067
:104E100066280010942B001066280010C22900108C
:104E20006628001066280010C2290010000000004B
:104E3000000000000000F03F0000000000002440DF
:104E400000000000000059400000000000408F40BA
:104E5000000000000088C34000000000006AF84025
:104E60000000000080842E4100000000D012634149
:104E70000000000084D797410000000065CDCD41BF
:104E800052656C6561736500626F6F74325F773273
:104E90003571303830000000312E342E30000000E3
:104EA0007069636F000000006D616E64656C627212
:104EB0006F7400004E6F7620313520323032320070
:104EC00006005250BBFF3CB6A04E001006005250E8
:104ED000E182887F884E001006005250D3F0754260
:104EE000804E00100D0A0000554152542073746426
:104EF000696E000055415254207374646F757400DC
:104F00005541525420737464696E202F2073746469
:104F10006F7574000600525053B4F4A1004F001096
:104F200008005250920000004E6F2070726F67723E
:104F3000616D20737061636500000000646F7562CD
:104F40006C65207265736574202D3E20424F4F546E
:104F500053454C000600525053B4F4A13C4F00108E
:104F6000B4020010A80200109C020010C04E0010F5
:104F700090020010CC4E0010D84E0010544F00107C
:084F8000144F0010204F001037
:104F8800D02330B500251B0600245D5706E00368D2
:104F9800BFF35F8F1C6081F3108820BF0268EFF3B6
:104FA800108172B61368002BFCD0BFF35F8F0379B2
:104FB8007F2BECD905710368BFF35F8F00221A605D
:104FC80081F3108830BDC046030010B50068EFF3C8
:104FD800108472B60268002AFCD0BFF35F8F0422E7
:104FE8009A56002A0BDB00290FD000200A601B68A4
:104FF800BFF35F8F00221A6084F3108810BDD0229F
:105008001206126801201A71F1E70020EFE7C04686
:105018000268EFF3108172B61368002BFCD0BFF35F
:105028005F8FFF2303710368BFF35F8F00221A604D
:1050380081F3108840BF70477047C046500E00206B
:105048001000000000000000000001000000000047
:105058000000000000000200000000000000000046
:105068000000030000000000000000000000FF0036
:105078000000000000B5486801318E4600477046C0
:1050880009380149884700BDFD0B0010E4010020E4
:105098000000000060020020BC03002000000000A7
:1050A80000000000CC030020000000000000000009
:1050B80010000000000000000000000000000000D8
:1050C800503300004C3300005433000052330000CA
:1050D8004D5300004D43000053340000433400009A
:1050E8007D47001000000000C947001000000000C4
:1050F800000100000000000000000000454300100F
:1051080085330010993A0010294200103903001025
:04511800454A0010F4
:0C511C0000000000000000000000000087
:04000005100001E9FD
:00000001FF
